{
  "contractName": "SquareVerifier",
  "abi": [
    {
      "constant": false,
      "inputs": [
        {
          "name": "a",
          "type": "uint256[2]"
        },
        {
          "name": "b",
          "type": "uint256[2][2]"
        },
        {
          "name": "c",
          "type": "uint256[2]"
        },
        {
          "name": "input",
          "type": "uint256[2]"
        }
      ],
      "name": "verifyTx",
      "outputs": [
        {
          "name": "r",
          "type": "bool"
        }
      ],
      "payable": false,
      "stateMutability": "nonpayable",
      "type": "function"
    },
    {
      "anonymous": false,
      "inputs": [
        {
          "indexed": false,
          "name": "s",
          "type": "string"
        }
      ],
      "name": "Verified",
      "type": "event"
    }
  ],
  "bytecode": "0x608060405234801561001057600080fd5b50611196806100206000396000f300608060405260043610610041576000357c0100000000000000000000000000000000000000000000000000000000900463ffffffff168063621e9ec014610046575b600080fd5b34801561005257600080fd5b5061015b60048036038101908080604001906002806020026040519081016040528092919082600260200280828437820191505050505091929192908060800190600280602002604051908101604052809291906000905b828210156100ec5783826040020160028060200260405190810160405280929190826002602002808284378201915050505050815260200190600101906100aa565b50505050919291929080604001906002806020026040519081016040528092919082600260200280828437820191505050505091929192908060400190600280602002604051908101604052809291908260026020028082843782019150505050509192919290505050610175565b604051808215151515815260200191505060405180910390f35b600061017f611006565b60606000604080519081016040528089600060028110151561019d57fe5b602002015181526020018960016002811015156101b657fe5b60200201518152508360000181905250604080519081016040528060408051908101604052808a60006002811015156101eb57fe5b602002015160006002811015156101fe57fe5b602002015181526020018a600060028110151561021757fe5b6020020151600160028110151561022a57fe5b6020020151815250815260200160408051908101604052808a600160028110151561025157fe5b6020020151600060028110151561026457fe5b602002015181526020018a600160028110151561027d57fe5b6020020151600160028110151561029057fe5b6020020151815250815250836020018190525060408051908101604052808760006002811015156102bd57fe5b602002015181526020018760016002811015156102d657fe5b6020020151815250836040018190525060026040519080825280602002602001820160405280156103165781602001602082028038833980820191505090505b509150600090505b600281101561036357848160028110151561033557fe5b6020020151828281518110151561034857fe5b9060200190602002018181525050808060010191505061031e565b600061036f838561041c565b141561040c577f3f3cfdb26fb5f9f1786ab4f1a1f9cd4c0b5e726cbdfc26e495261731aad44e396040518080602001828103825260228152602001807f5472616e73616374696f6e207375636365737366756c6c79207665726966696581526020017f642e00000000000000000000000000000000000000000000000000000000000081525060400191505060405180910390a160019350610411565b600093505b505050949350505050565b60008061042761103b565b61042f611084565b60007f30644e72e131a029b85045b68181585d2833e84879b9709143e1f593f0000001935061045c6105a2565b9250826080015151600188510114151561047557600080fd5b60408051908101604052806000815260200160008152509150600090505b8651811015610518578387828151811015156104ab57fe5b906020019060200201511015156104c157600080fd5b610509826105048560800151600185018151811015156104dd57fe5b906020019060200201518a858151811015156104f557fe5b906020019060200201516109fc565b610a98565b91508080600101915050610493565b61053e828460800151600081518110151561052f57fe5b90602001906020020151610a98565b91506105848660000151876020015161055685610b55565b86604001516105688b60400151610b55565b886060015161057a8a60000151610b55565b8a60200151610bf0565b15156105935760019450610598565b600094505b5050505092915050565b6105aa61103b565b60408051908101604052807f1698b85378372a61f5ab38ba119f02894d5870b6c1ff56812b5bb8ae65f5a73781526020017f1bda73dbb09303da811b57edf13a42bba4dd56dc829ea6f21cd1dcf83bef2db88152508160000181905250604080519081016040528060408051908101604052807f09f7e244ce2e638f03c0b03435cd79ee0039183c41492d6d9141396951b59ab181526020017f2b0a8d0ea4e805a8e4b40b4068ed647b4387c3e642d15c51256aab622c53d657815250815260200160408051908101604052807f1834a3efa6a553d5ca18cc398a7fb58d01cf30315560b44cf87bb2851be49ac881526020017f2f50cb8ea02462f66970caecfa30e4911d4e7b6a85e1167d8bc76487b58fa8d08152508152508160200181905250604080519081016040528060408051908101604052807f212bdc55945e324cfa18eaa23f0dd396abb0b760bc8a6dcb19e32a2e8e5908de81526020017f22b4e86a479ad75fc512cce10e25e3aa375db1bac5812552aac4ab2e633a4dd8815250815260200160408051908101604052807f1485434190b8188f79b3075a9d9c78e994b5b3aebc1e9aed56091e0957fdefde81526020017f2912016e35af17c45119c15a0155d8235607be467c22309782cb1c4474f8b8268152508152508160400181905250604080519081016040528060408051908101604052807f101ab6c9473336bb51c28f6a2e285c0167aa1c0993ae3233ca431e3628495d0581526020017f121ad8ab247956dc778c8c54718a4bdf25ea49bf95b066aab3e2af4f19d6339f815250815260200160408051908101604052807f1e40ae3e076b06e2ac2c335560a4ecd10b0742dbf6e4e6ff1fa51e6bfa61ee8081526020017f05e0bf0b921d7e4d356d2111f5574effe22960847665021c0519aeb3f31a3b798152508152508160600181905250600360405190808252806020026020018201604052801561089157816020015b61087e61109e565b8152602001906001900390816108765790505b50816080018190525060408051908101604052807f0a0ba66d0a61fbb8324f4b36115f62df86801cb193fb15afacc5daed273415ff81526020017f0fc708578b95af9c3732d108b4904fa3ea8a14da69361947010734080b493ee58152508160800151600081518110151561090257fe5b9060200190602002018190525060408051908101604052807f098c59e9d49841e3443b970a366be2bb747bd0b5c6d4986cfd4ca53d4932466381526020017f1975f683bf4dd2975ee87d9834cbcf987829d56f12c52762c2d0f14f456951ca8152508160800151600181518110151561097757fe5b9060200190602002018190525060408051908101604052807f02bbd8a0a7fe62710affeeadc7c3bfec0f037ffedffed7d465209aea4250c8f981526020017f18455a1f72f6d371e33e7268796965dcce4ccf4bd29ba9d3b168162cb35ea413815250816080015160028151811015156109ec57fe5b9060200190602002018190525090565b610a04611084565b610a0c6110b8565b60008460000151826000600381101515610a2257fe5b6020020181815250508460200151826001600381101515610a3f57fe5b60200201818152505083826002600381101515610a5857fe5b602002018181525050606083608084600060076107d05a03f190508060008114610a8157610a83565bfe5b50801515610a9057600080fd5b505092915050565b610aa0611084565b610aa86110db565b60008460000151826000600481101515610abe57fe5b6020020181815250508460200151826001600481101515610adb57fe5b6020020181815250508360000151826002600481101515610af857fe5b6020020181815250508360200151826003600481101515610b1557fe5b60200201818152505060608360c084600060066107d05a03f190508060008114610b3e57610b40565bfe5b50801515610b4d57600080fd5b505092915050565b610b5d611084565b60007f30644e72e131a029b85045b68181585d97816a916871ca8d3c208c16d87cfd47905060008360000151148015610b9a575060008360200151145b15610bbd5760408051908101604052806000815260200160008152509150610bea565b604080519081016040528084600001518152602001828560200151811515610be157fe5b06830381525091505b50919050565b60006060806004604051908082528060200260200182016040528015610c3057816020015b610c1d61109e565b815260200190600190039081610c155790505b5091506004604051908082528060200260200182016040528015610c6e57816020015b610c5b6110fe565b815260200190600190039081610c535790505b5090508a826000815181101515610c8157fe5b9060200190602002018190525088826001815181101515610c9e57fe5b9060200190602002018190525086826002815181101515610cbb57fe5b9060200190602002018190525084826003815181101515610cd857fe5b9060200190602002018190525089816000815181101515610cf557fe5b9060200190602002018190525087816001815181101515610d1257fe5b9060200190602002018190525085816002815181101515610d2f57fe5b9060200190602002018190525083816003815181101515610d4c57fe5b90602001906020020181905250610d638282610d73565b9250505098975050505050505050565b600080600060606000610d84611125565b600087518951141515610d9657600080fd5b8851955060068602945084604051908082528060200260200182016040528015610dcf5781602001602082028038833980820191505090505b509350600092505b85831015610fac578883815181101515610ded57fe5b90602001906020020151600001518460006006860201815181101515610e0f57fe5b90602001906020020181815250508883815181101515610e2b57fe5b90602001906020020151602001518460016006860201815181101515610e4d57fe5b90602001906020020181815250508783815181101515610e6957fe5b90602001906020020151600001516000600281101515610e8557fe5b60200201518460026006860201815181101515610e9e57fe5b90602001906020020181815250508783815181101515610eba57fe5b90602001906020020151600001516001600281101515610ed657fe5b60200201518460036006860201815181101515610eef57fe5b90602001906020020181815250508783815181101515610f0b57fe5b90602001906020020151602001516000600281101515610f2757fe5b60200201518460046006860201815181101515610f4057fe5b90602001906020020181815250508783815181101515610f5c57fe5b90602001906020020151602001516001600281101515610f7857fe5b60200201518460056006860201815181101515610f9157fe5b90602001906020020181815250508280600101935050610dd7565b6020826020870260208701600060086107d05a03f190508060008114610fd157610fd3565bfe5b50801515610fe057600080fd5b6000826000600181101515610ff157fe5b60200201511415965050505050505092915050565b6101006040519081016040528061101b61109e565b81526020016110286110fe565b815260200161103561109e565b81525090565b6101e06040519081016040528061105061109e565b815260200161105d6110fe565b815260200161106a6110fe565b81526020016110776110fe565b8152602001606081525090565b604080519081016040528060008152602001600081525090565b604080519081016040528060008152602001600081525090565b606060405190810160405280600390602082028038833980820191505090505090565b608060405190810160405280600490602082028038833980820191505090505090565b608060405190810160405280611112611148565b815260200161111f611148565b81525090565b602060405190810160405280600190602082028038833980820191505090505090565b60408051908101604052806002906020820280388339808201915050905050905600a165627a7a723058202157d19784b0e3488a258aa6b5fcdea8039f3f407d2a351122b2f7c363350bb10029",
  "source": "pragma solidity >=0.4.21 <0.6.0;\r\n\r\n// TODO define a contract call to the zokrates generated solidity contract <Verifier> or <renamedVerifier>\r\nimport \"./ERC721Mintable.sol\";\r\nimport \"./Zokratesverifier.sol\";\r\nimport \"openzeppelin-solidity/contracts/utils/Address.sol\";\r\n\r\ncontract SquareVerifier is Verifier {\r\n\r\n}\r\n\r\n// TODO define another contract named SolnSquareVerifier that inherits from your ERC721Mintable class\r\ncontract SolnSquareVerifier is ERC721RealEstateToken {\r\n    SquareVerifier public verifier;\r\n\r\n    constructor(address verifierAddress) ERC721RealEstateToken() public {\r\n        verifier = SquareVerifier(verifierAddress);\r\n    }\r\n    \r\n    // TODO define a solutions struct that can hold an index & an address\r\n    struct Solution {\r\n        uint tokenId;\r\n        address to;\r\n    }\r\n\r\n\r\n    // TODO define an array of the above struct\r\n    Solution[] solutions;\r\n\r\n\r\n\r\n    // TODO define a mapping to store unique solutions submitted\r\n    mapping(bytes32 => Solution) private uniqueSolutions;\r\n\r\n\r\n\r\n\r\n\r\n    // TODO Create an event to emit when a solution is added\r\n    event SolutionAdded(uint tokenId, address to);\r\n\r\n\r\n\r\n    // TODO Create a function to add the solutions to the array and emit the event\r\n    function addSolution(address _to, uint _tokenId, bytes32 key) public {\r\n        Solution memory _soln = Solution({tokenId: _tokenId, to: _to});\r\n        solutions.push(_soln);\r\n        uniqueSolutions[key] = _soln;\r\n        emit SolutionAdded(_tokenId, _to);\r\n    }\r\n\r\n\r\n// TODO Create a function to mint new NFT only after the solution has been verified\r\n//  - make sure the solution is unique (has not been used before)\r\n//  - make sure you handle metadata as well as tokenSuplly\r\nfunction mintToken(address _to,\r\n            uint _tokenId,\r\n            uint[2] memory a,\r\n            uint[2][2] memory b,\r\n            uint[2] memory c,\r\n            uint[2] memory input) public\r\n    {\r\n        bytes32 key = keccak256(abi.encodePacked(a, b, c, input));\r\n        require(uniqueSolutions[key].to == address(0), \"Solution is already being used\");\r\n        require(verifier.verifyTx(a, b, c, input), \"Solution is not valid\");\r\n        addSolution(_to, _tokenId, key);\r\n        super.mint(_to, _tokenId);\r\n    }\r\n\r\n    }\r\n  \r\n\r\n\r\n\r\n\r\n\r\n\r\n\r\n\r\n\r\n\r\n\r\n\r\n\r\n\r\n\r\n\r\n\r\n\r\n\r\n\r\n\r\n\r\n\r\n\r\n\r\n\r\n",
  "sourcePath": "C:\\private\\blockchain\\part2\\projects\\Blockchain-Capstone\\eth-contracts\\contracts\\SolnSquareVerifier.sol",
  "compiler": {
    "name": "solc",
    "version": "0.4.24+commit.e67f0147.Emscripten.clang"
  },
  "schemaVersion": "2.0.1",
  "updatedAt": "2019-08-08T12:48:08.772Z"
}